:10000000183000208D0A02008D0702009D0A0200B0
:100010009D0A02009D0A02009D0A02009D0A02003C
:100020000000000000000000000000009D0A020027
:100030009D0A02000000000031BD0100B1BD0100B9
:1000400087C10100AFC0010053C20100ABC2010073
:10005000E5DE01009FCB01003FCB01001DCC01007C
:1000600065CC01009BD30100CFD301007F020200C9
:0C007000C9F2010085F301002DF401002D
:10007C00E47E0200E47E0200E47E0200E47E0200E4
:10008C00545A0200DC6502000000000030660200D9
:10009C008C660200C866020004670200D867020082
:1000AC00705002003C0000205400002000000000B2
:1000BC0014001200140014000400000000000000E2
:1000CC000000000000000000000000000F00000015
:1000DC000F0000000F0000001400120014001400A8
:1000EC000400000000000000000000000000000000
:1000FC00000000000F000000000000000F000000D6
:10010C0000000601000006021D00060005000000AC
:10011C006C000020906802009C680200DC0000204B
:10012C0068000020010001001700000080000000A2
:10013C0040000000703800200C3A00209439002058
:10014C00483D0020000400000000000015000000E5
:10015C00050000000500000006000000190000006A
:10016C001200000002000000050000000600000064
:10017C00190000001400000002000000050000003F
:10018C000600000019000000160000000500000029
:10019C00050000000600000019000000120000001D
:1001AC00020000000500000006000000190000001D
:1001BC000500000002000000050000000600000021
:1001CC00190000000E0000000500000005000000F2
:1001DC0006000000190000001200000002000000E0
:1001EC0005000000060000001900000005000000DA
:1001FC0005000000050000000600000019000000CA
:10020C000F000000050000000500000006000000C3
:10021C0019000000120000000200000005000000A0
:10022C000600000019000000050000000500000099
:10023C00050000000600000019000000100000007E
:10024C000500000005000000060000001900000079
:10025C001200000002000000050000000600000073
:10026C00190000001400000004000000050000004C
:10027C00060000001900000033335340CDCCCC3DB8
:10028C000101010000000800000000000000000057
:10029C00000000000000100800000000000000003A
:1002AC0000000000F0F0F0F000010000030100007D
:1002BC00070100000A0100000E01000012010000FD
:1002CC00160100001A0100001E01000022010000AE
:1002DC00260100002A0100002E010000320100005E
:1002EC00360100003B0100003F010000440100000A
:1002FC00480100004D0100005101000056010000B2
:10030C005B01000060010000650100006A01000053
:10031C006F01000074010000790100007E010000F3
:10032C0084010000890100008E010000940100008E
:10033C009A0100009F010000A5010000AB01000024
:10034C00B1010000B7010000BD010000C3010000B5
:10035C00CA010000D0010000D7010000DD0100003F
:10036C00E4010000EB010000F1010000F8010000C5
:10037C0000020000070200000E020000150200003F
:10038C001D020000240200002C02000034020000B8
:10039C003C020000440200004C0200005402000029
:1003AC005C020000650200006D0200007602000095
:1003BC007F02000088020000910200009A020000F7
:1003CC00A3020000AD020000B6020000C002000053
:1003DC00CA020000D4020000DE020000E8020000A5
:1003EC00F2020000FD0200000803000012030000EE
:1003FC001D03000029030000340300003F0300002C
:10040C004B03000057030000630300006F03000060
:10041C007B0300008703000094030000A10300008D
:10042C00AE030000BB030000C8030000D6030000AD
:10043C00E3030000F1030000000400000E040000C0
:10044C001C0400002B0400003A04000049040000C6
:10045C0058040000680400007804000088040000C0
:10046C0098040000A8040000B9040000CA040000AD
:10047C00DB040000EC040000FE040000100500008A
:10048C002205000034050000470500005A05000055
:10049C006D0500008005000094050000A805000013
:1004AC00BC050000D0050000E5050000FA050000C1
:1004BC0010060000250600003B0600005206000056
:1004CC00680600007F06000096060000AE060000DD
:1004DC00C6060000DE060000F60600000F0700004E
:1004EC0029070000420700005C07000076070000A7
:1004FC0091070000AC070000C7070000E3070000ED
:10050C00000800001C080000390800005608000014
:10051C007408000092080000B1080000D008000028
:10052C00F00800001009000030090000510900001B
:10053C007209000094090000B6090000D9090000F6
:10054C00FC090000200A0000440A0000690A0000AF
:10055C008E0A0000B40A0000DA0A0000010B000049
:10056C00280B0000500B0000780B0000A10B0000C2
:10057C00CB0B0000F50B0000200C00004B0C000016
:10058C00770C0000A40C0000D10C0000FE0C000045
:10059C002D0D00005C0D00008C0D0000BC0D00004A
:1005AC00ED0D00001F0E0000520E0000850E000025
:1005BC00B90E0000ED0E0000230F0000590F0000D3
:1005CC008F0F0000C70F0000001000003910000052
:1005DC0073100000AD100000E910000025110000A0
:1005EC0063110000A1110000E011000020120000B6
:1005FC0061120000A2120000E51200002813000096
:10060C006D130000B2130000F91300004014000039
:10061C0088140000D21400001C150000681500009E
:10062C00B41500000216000050160000A0160000C1
:10063C00F11600004317000096170000EA1700009F
:10064C004018000097180000EE1800004819000030
:10065C00A2190000FD1900005A1A0000B91A000076
:10066C00181B0000791B0000DB1B00003F1C000066
:10067C00A41C00000A1D0000721D0000DB1D000000
:10068C00461E0000B21E00001F1F00008F1F00003E
:10069C00FF1F000072200000E62000005B2100001C
:1006AC00D32100004B220000C62200004223000090
:1006BC00C023000040240000C22400004525000097
:1006CC00CA25000051260000DA260000652700002C
:1006DC00F22700008128000011290000A429000045
:1006EC00392A0000D02A0000692B0000042C0000DD
:1006FC00A12C0000412D0000E22D0000862E0000F0
:10070C002D2F0000D52F0000803000002E3100006E
:10071C00DD3100009032000044330000FB33000058
:10072C00B53400007235000031360000F23600009E
:10073C00B73700007E38000048390000143A00003A
:10074C00E43A0000B63B00008C3C0000643D000025
:10075C003F3E00001E3F0000FF3F0000E440000051
:10076C00CC410000B7420000A643000097440000B3
:10077C008D4500008546000081470000814800003F
:10078C00844900008A4A0000954B0000A34C0000ED
:10079C00B54D0000CB4E0000E44F000002510000AC
:1007AC00235200004953000072540000A055000071
:1007BC00D25600000858000043590000825A00002D
:1007CC00C55B00000D5D00005A5E0000AB5F0000D1
:1007DC00016100005C620000BB630000206500004A
:1007EC0089660000F76700006B690000E46A00008E
:1007FC00626C0000E56D00006E6F0000FC70000084
:10080C009072000029740000C87500006D7700001C
:10081C0018790000C97A00007F7C00003C7E000043
:10082C00FF7F0000C9810000998300006F850000E4
:10083C004C8700002F8900001A8B00000B8D0000E4
:10084C00038F000002910000089300001595000032
:10085C002A970000469900006A9B0000969D0000B4
:10086C00C99F000004A2000047A4000092A600004B
:10087C00E5A8000041AB0000A5AD000011B00000E0
:10088C0086B2000004B500008BB700001BBA000054
:10089C00B4BC000057BF000003C20000B8C4000085
:1008AC0077C7000040CA000012CD0000EFCF000057
:1008BC00D6D20000C8D50000C4D80000CADB0000A6
:1008CC00DCDE0000F8E1000020E5000053E8000049
:1008DC0091EB0000DBEE000030F2000092F500001E
:1008EC00FFF8000079FC0000FFFF000092030100FC
:1008FC0032070100DF0A0100980E01005F120100AF
:10090C0034160100161A0100061E01000422010013
:10091C00112601002B2A0100552E01008D320100F9
:10092C00D53601002C3B0100923F01000844010028
:10093C008E480100244D0100CB510100825601006C
:10094C004A5B0100236001000D650100096A01008A
:10095C00176F01003774010069790100AE7E010048
:10096C000684010070890100EE8E01008094010064
:10097C00259A0100DF9F0100ADA5010090AB01009D
:10098C0088B1010095B70100B8BD0100F1C30100A9
:10099C0040CA0100A6D0010022D70100B6DD01003B
:1009AC0061E4010024EB0100FFF10100F3F8010008
:1009BC00FFFF010025070200640E0200BE150200B5
:1009CC00311D0200BF240200682C02002C340200EE
:1009DC000D3C020009440200224C02005754020054
:1009EC00AB5C02001B650200AA6D02005876020087
:1009FC00257F0200118802001D910200499A020015
:100A0C0096A3020004AD020094B6020047C0020097
:100A1C001BCA020013D402002FDE02006FE8020092
:100A2C00D3F202005CFD02000C080300E11203008B
:100A3C00DD1D0300002903004B340300BF3F0300FE
:100A4C005B4B030021570300116303002B6F030062
:100A5C00717B0300E3870300819403004CA1030026
:100A6C0045AE03006DBB0300C3C8030049D60300A9
:100A7C00FFE30300E6F10300FFFF030000000000AA
:100A8C000702000000000000030000005088002056
:100A9C00600A00200000000050880020B888002068
:100AAC002089002000000000000000000000000071
:100ABC00000000000000000000000000000000002A
:100ACC00000000000000000000000000000000001A
:100ADC00000000000000000000000000000000000A
:100AEC0043000000000000000000000000000000B7
:100AFC0000000000000000000000000000000000EA
:100B0C004300000000000000000000000000000096
:100B1C0000000000000000000000000000000000C9
:100B2C004300000000000000000000000000000076
:100B3C0000000000000000000000000000000000A9
:100B4C004300000000000000000000000000000056
:100B5C000000000000000000000000000000000089
:100B6C004300000000000000000000000000000036
:100B7C000000000000000000000000000000000069
:100B8C004300000000000000000000000000000016
:100B9C000000000000000000000000000000000049
:100BAC0043000000000000000000000000000000F6
:100BBC000000000000000000000000000000000029
:100BCC00C94F0200494F020000000000C08502001E
:100BDC00C1840200AD840200AD840200AD84020029
:100BEC00AD840200AD840200AD840200AD8402002D
:100BFC00AD840200AD840200FFFFFFFFFFFFFFFF8B
:100C0C00FFFFFFFFFFFF0000010041534349490074
:100C1C0000000000000000000000000000000000C8
:100C2C00000000000000000000004153434949004F
:100C3C0000000000000000000000000000000000A8
:0C0C4C000000000000000000000000009C
:100C58000348044B834202D0034B03B11847704743
:100C6800180C0020180C002000000000064B074953
:100C7800C91A891048BF0131491003D0044B0BB180
:100C880001481847704700BF180C0020180C0020B6
:100C98000000000010B5064C237843B9FFF7D8FFD1
:100CA800044B13B10448AFF300800123237010BD37
:100CB800383000200000000084A2000108B5054B70
:100CC8001BB105490548AFF30080BDE80840FFF7B0
:100CD800CDBF00BF000000003C30002084A200010E
:100CE800B0B58CB004AFF860B9607A60BB68FB61DE
:100CF800FB681B6CBB61FB681868BB691C68FB68F8
:100D08009B68FA68D288F9682C317425039502919A
:100D18000192009323467A680146F86919F05AFA55
:100D280078617B69002B0ED1BB695B681946F8694D
:100D380019F094FABB699968BB69DA68BB691B69E1
:100D4800F86919F0BDFA7B6918462037BD46B0BD71
:100D580090B58DB004AFF860B9607A60BB68FB618C
:100D6800FB681B6CBB61FB681968FB689868FB68CB
:100D7800DB88FA682C3270240294019200930346AF
:100D88007A68F86919F07CFD78617B69002B0DD1D0
:100D9800BB691B68002B09D0BB691968FB689B6895
:100DA80003F480231A46F86919F0FEFD7B6918469A
:100DB8002437BD4690BD80B588B000AFF860B960F3
:100DC8007A600023FB6100237B6100237B8300237F
:100DD8003B837B68002B00F08C807B68B3F84C3039
:100DE8004C2B40F086807B68B3F8E4303B8380E08E
:100DF800BB681B6A002B7CD0BB689B68002B0DDA94
:100E0800BB681A6907F114031146184619F0A0FBCC
:100E1800F861FB69002B0BD0002372E0FB68002B04
:100E280001D100236DE0BB68DB6BFA6813447B617A
:100E3800BB681B6A79697A68B8689847F861B7F936
:100E48001A20B7F918309A4214DA7B69194678687B
:100E580019F092F97B68B3F9E4309BB2013B9BB27D
:100E68001AB27B68A3F8E420B7F91A309BB20133B1
:100E78009BB27B83FB69002B38D1BB689B88C82B4E
:100E880008D07869BB685969BB689A69BB68DB692F
:100E980019F00CFCBB68DB6803F02003002B04D1BD
:100EA8007B692021184619F0CFFCBB685B6A002BD0
:100EB80006D07A69BB685B6A1946104619F0A2FB2E
:100EC800BB689B6A002B06D07A69BB689B6A194687
:100ED800104619F0CDFBBB689B6B002B06D0BB6896
:100EE8009B6B7A691946F868FFF765FFBB685B6B0F
:100EF800BB60BB68002B03D0FB69002B3FF478AFC5
:100F08007B6918462037BD4680BD80B586B000AFE6
:100F1800F860B9607A600022B968F868FFF74BFF9B
:100F280078617B68002B06D07B69002B03D0796938
:100F3800786819F02DFB7B6918461837BD4680BDC7
:100F480080B588B000AFF860B9607A601023FB61A3
:100F5800184BBB6100237B611BE0BB691B681B68E6
:100F68001946F86822F043FA0346002B0ED1BB69F4
:100F78005868BB691B68BA681946FFF7C6FF7861ED
:100F88007B69002B0AD00023FB6107E0BB690833AB
:100F9800BB61BB691B68002BDFD100E000BF7B6829
:100FA800002B02D07B687A691A60FB6918462037E3
:100FB800BD4680BD506E0200F0B58FB006AFB96077
:100FC80011461A460346FB810B467B731346FB808A
:100FD800FA891346DB009B1ADB00674A1344FB615E
:100FE800FB69186AFB691968FB699B691AB2FB6996
:100FF800DB691BB24FF49274019400931346BA68EC
:1010080018F098FFFB699B68002B4BD0FB699A6826
:10101800FB889B0013441B68BB61BB69002B41D054
:10102800FB69186ABB691968BB69B3F868301A4666
:1010380018F04AFFFB691B6A1B6E002B0ED0BB69B8
:10104800DB68002B0AD0FB691B6A1B6EFA69106A01
:10105800BA69D168BA69B2F86E209847FB69186A0C
:10106800BB695968BB69B3F86A301A4618F0A8FF1B
:10107800FB69186ABB699968BB69B3F86C301A4692
:1010880019F046F8BB691A6EBB6910331946104649
:1010980019F0ECF9BB695A6EBB693833194610462A
:1010A80019F0E4F9FB69DB68002B11D0FB69186AB9
:1010B800FB69D968FB695B8ADAB2FB695B6918F07E
:1010C800B3FFFB691B6A7A7B1146184618F0BCFE11
:1010D800FB691B6AFA69928EA3F84420FB695C6A73
:1010E800FB695D68FB691E6AFB699B693B60FA697D
:1010F800D269F969C96AF869006B4FF44F730493B0
:101108000390029101923B680093062332462946D8
:10111800204618F037FEFB699B699BB2013B9BB2E6
:101128001AB2FB69DB699BB2013B9BB21BB207F1A8
:101138001000009313460022002119F0E5F9FB691D
:10114800986AFB691968FB695A6A7823029307F160
:101158001003019300230093002319F0DDFBBB6B00
:10116800002B03D0FB699A6ABB6B1A6000231846F0
:101178002437BD46F0BD00BFE000002080B582B036
:1011880000AF0346FB71FB79022B03D103490448E6
:101198001CF050FB00BF0837BD4680BD9C710200A3
:1011A8003C4600200000000080B584B000AF264B0C
:1011B8001B6818461FF0E0FE02460B4620A1D1E945
:1011C800000120F05BF802460B461046194620F055
:1011D800C5F90346FB810023BB60FB891B0A9BB250
:1011E800DBB23B71FB89DBB27B713B1D02221946E6
:1011F800052001F09BFB0346BB60BB68002B03D0B6
:10120800642003F00DFDF0E700BF00233B803B4660
:1012180002221946052001F00BFC0346BB603A790F
:101228003B789A4203D17A797B789A4203D0062395
:10123800BB60BB6800E0BB6818461037BD4680BD80
:10124800F168E388B5F8743F5441002080B584B054
:1012580000AF0023FB60204B1B78002B01D000233C
:1012680035E01E4B1E4A1A6040F227337B817B898A
:101278001B0A9BB2DBB23B717B89DBB27B713B1DE6
:1012880002221946002001F051FB0346FB60FB686F
:10129800002B01D0FB681AE0FFF786FF0346FB60CE
:1012A800FB68002B01D0FB6811E04FF480633B81A1
:1012B8003B89184600F016F80346FB60FB68002BD4
:1012C80001D0FB6803E0044B01221A70FB68184642
:1012D8001037BD4680BD00BF584100205441002052
:1012E8006F12833A80B584B000AF0346FB80FB8859
:1012F8001B0A9BB2DBB23B72FB88DBB27B7200231A
:10130800FB6007F1080302221946062001F00EFBD4
:101318000346FB60FB6818461037BD4680BD80B5A4
:1013280084B000AF0023FB810023BB603B1D022279
:101338001946062001F07CFB0346BB60BB68002B06
:1013480008D13B791BB21B021AB27B791BB213433B
:101358001BB2FB81FB8918461037BD4680BD0000D3
:1013680080B582B000AF00237B603B46022219465D
:10137800022001F05DFB03467B607B68002B19D1DE
:101388003B781BB21B021AB27B781BB213431BB209
:101398007B807B8818461FF0DDFD0BA3D3E9002373
:1013A8001FF042FE02460B461046194620F0F6F89A
:1013B800034601E04FF0000307EE903AB0EE670AEB
:1013C8000837BD4680BD00BF7B14AE47E17A543F65
:1013D80080B582B000AF00237B603B4602221946ED
:1013E800042001F025FB03467B607B68002B13D1AA
:1013F8003B781BB21B021AB27B781BB213437B806B
:10140800B7F9023007EE903AB8EEE77A064BD3ED1B
:10141800007A67EE277A01E0DFED047AB0EE670A1A
:101428000837BD4680BD00BF5441002000000000C1
:1014380080B582B000AF00237B603B46022219468C
:10144800FE2001F0F5FA03467B607B68002B0AD189
:101458003B781BB21B021AB27B781BB213431BB238
:101468007B807B8800E0002318460837BD4680BD96
:1014780080B584B000AFFFF752FF03467B817B89BC
:1014880003F00803002B32D0FFF76AFFF0EE407A32
:10149800C7ED017AFFF79CFFF0EE407AC7ED037ABB
:1014A800D7ED037AF5EEC07AF1EE10FA05D5D7ED4F
:1014B800037AF1EE677AC7ED037AF8681FF05CFDEE
:1014C80010A3D3E9002320F021F80346002B01D014
:1014D800094BFB60D7ED037AF5EEC07AF1EE10FA0E
:1014E80002DD064AFB681360054A7B68136000BF8B
:1014F8001037BD4680BD00BF6F12833A1C460020DE
:1015080018460020FCA9F1D24D62503F80B584B046
:1015180000AF03460A46FB711346BB71BB79002B2B
:1015280006D001224FF482711A481CF0C8F905E070
:1015380000224FF4827117481CF0C1F9002240F2D2
:10154800031114481CF0BBF9012101201FF04AF8CF
:10155800F91D0723012210481BF062F8F860FB68A8
:10156800002B02D00D4821F075FD012101201FF04C
:1015780039F8012240F2031106481CF0A0F90122B3
:101588004FF4827103481CF09AF900BF1037BD462A
:1015980080BD00BF3C460020B8460020706E0200A7
:1015A80080B582B000AF0023FB7126E0FB79503B89
:1015B800DBB200211846FFF7A9FF00210020FFF742
:1015C800A5FF00211020FFF7A1FF0023BB710DE04C
:1015D800BA79FB790D49D2000A4413441B780121DA
:1015E8001846FFF793FFBB790133BB7197F90630B3
:1015F800002BEDDAFB790133FB71FB79072BD5D989
:1016080000BF00BF0837BD4680BD00BF5C41002059
:1016180080B582B000AF0023FB7114E00023BB71DA
:101628000AE0BA79FB790C49D2000A441344002233
:101638001A70BB790133BB7197F90630002BF0DAC9
:10164800FB790133FB71FB79072BE7D9FFF7A8FF7B
:1016580000BF0837BD4680BD5C41002080B582B020
:1016680000AF0346FB710B46BB7113467B717B7958
:10167800002B06D0BA79FB791146184600F00CF811
:1016880005E0BA79FB791146184600F033F800BF37
:101698000837BD4680BD000080B485B000AF034662
:1016A8000A46FB711346BB71BB79DB08FB73BB7938
:1016B80003F00703BB73BB7B012202FA03F37B73BE
:1016C800FA79FB7B0A49D2000A4413441878FA795C
:1016D800FB7B797B0143C8B20549D2000A44134415
:1016E80002461A7000BF1437BD465DF8047B704788
:1016F8005C41002080B485B000AF03460A46FB7108
:101708001346BB71BB79DB08FB73BB7903F0070396
:10171800BB73BB7B012202FA03F37B73FA79FB7B71
:101728001B49D2000A4413441978FA79FB7BC94350
:10173800C8B21749D2000A44134402461A70FA790B
:10174800FB7B1349D2000A4413441878FA79FB7BCF
:10175800797B0143C8B20E49D2000A4413440246B9
:101768001A70FA79FB7B0A49D2000A4413441978A3
:10177800FA79FB7BC943C8B20549D2000A4413442D
:1017880002461A7000BF1437BD465DF8047B7047E7
:101798005C41002080B586B000AF0346FB710B4664
:1017A800BB7113467B7100237B617B793B6180E0D1
:1017B8007B69DAB2FB791344D8B23B69DBB2BA79F8
:1017C800D31ADBB21946FFF767FF7B69DBB2FA79F8
:1017D800D31AD8B23B69DBB2BA79D31ADBB219464D
:1017E800FFF75AFF7B69DBB2FA79D31AD8B23B69A3
:1017F800DAB2BB791344DBB21946FFF74DFF7B69B8
:10180800DAB2FB791344D8B23B69DAB2BB79134434
:10181800DBB21946FFF740FF3B69DAB2FB791344A4
:10182800D8B27B69DAB2BB791344DBB21946FFF749
:1018380033FF3B69DAB2FB791344D8B27B69DBB278
:10184800BA79D31ADBB21946FFF726FF3B69DBB238
:10185800FA79D31AD8B27B69DBB2BA79D31ADBB278
:101868001946FFF719FF3B69DBB2FA79D31AD8B2E8
:101878007B69DAB2BB791344DBB21946FFF70CFF78
:101888007B6901337B617B6903FB03F23B6903FBE3
:1018980003F31A447B79797901FB03F3D31AFB60CC
:1018A800FB68002B05DD3B69013B3B617B69013B24
:1018B8007B613B6903FB03F35A007B79797901FB70
:1018C80003F39A42BFF674AF00BF00BF1837BD4696
:1018D80080BD000080B500AF01224FF4A0614448EC
:1018E8001BF0EDFF0A2003F09BF900224FF4A061E2
:1018F8003F481BF0E4FF142003F092F901224FF453
:10190800A0613B481BF0DBFF0021AE20FFF7FEFD86
:1019180000210020FFF7FAFD00211020FFF7F6FD57
:1019280000214020FFF7F2FD00218120FFF7EEFDA6
:101938000021CF20FFF7EAFD0021A120FFF7E6FDF7
:101948000021C820FFF7E2FD0021A620FFF7DEFDF9
:101958000021A820FFF7DAFD00213F20FFF7D6FD80
:101968000021D320FFF7D2FD00210020FFF7CEFD94
:101978000021D520FFF7CAFD00218020FFF7C6FD12
:101988000021D920FFF7C2FD0021F120FFF7BEFD9D
:101998000021DA20FFF7BAFD00211220FFF7B6FD7B
:1019A8000021DB20FFF7B2FD00214020FFF7AEFD4C
:1019B80000212020FFF7AAFD00210220FFF7A6FD45
:1019C80000218D20FFF7A2FD00211420FFF79EFDC6
:1019D8000021A420FFF79AFD0021A620FFF796FD1D
:1019E8000021AF20FFF792FDFFF712FE00BF80BD78
:1019F8003C46002080B582B000AF78603B1D0122D4
:101A080019460E481AF0BCFA03460D4A13600C4BEF
:101A18001B68002B00D000BE00BF0A4B1B78DBB24E
:101A280083F00103DBB2002BF7D1064B00221A70BA
:101A38007B6818460837BD4680BD00BFE4460020D5
:101A4800DC450020E045002080B483B000AF78601A
:101A58004FF0FF3318460C37BD465DF8047B7047DE
:101A680080B485B000AFF860B9607A60002318468A
:101A78001437BD465DF8047B704780B485B000AF6D
:101A8800F860B9607A60002318461437BD465DF8DF
:101A9800047B704780B586B000AFF860B9607A60A3
:101AA80000237B610AE0BB685A1CBA6093F90030D6
:101AB8001846FFF79FFF7B6901337B617A697B6872
:101AC8009A42F0DB7B6818461837BD4680BD80B463
:101AD80083B000AF786039604FF0FF3318460C3799
:101AE800BD465DF8047B704780B483B000AF786072
:101AF800002318460C37BD465DF8047B704780B458
:101B080083B000AF786000BFFDE780B483B000AF5A
:101B180078603960002318460C37BD465DF8047BB1
:101B2800704780B400AF01231846BD465DF8047BBA
:101B3800704780B483B000AF87ED000B3A687968CE
:101B480021F0004343EC172BB0EE470AF0EE670A8A
:101B58000C37BD465DF8047B704780B483B000AF96
:101B680087ED010AD7ED017AF0EEE77AB0EE670A61
:101B78000C37BD465DF8047B7047000080B584B023
:101B880000AF78603960634BBB600023FB73B6E03D
:101B98000023BB73ABE0FB7B1B01BA7BD208D2B23C
:101BA80013441A46BB6813441B78DB09DAB2F97B85
:101BB800BB7B1846FFF752FDBB7B0133D8B2FB7BDA
:101BC8001B01BA7BD208D2B213441A46BB6813442D
:101BD8001B789B09DBB203F00103DAB2FB7B1946E1
:101BE800FFF73CFDBB7B0233D8B2FB7B1B01BA7B02
:101BF800D208D2B213441A46BB6813441B785B0957
:101C0800DBB203F00103DAB2FB7B1946FFF726FDCE
:101C1800BB7B0333D8B2FB7B1B01BA7BD208D2B2A1
:101C280013441A46BB6813441B781B09DBB203F044
:101C38000103DAB2FB7B1946FFF710FDBB7B0433C7
:101C4800D8B2FB7B1B01BA7BD208D2B213441A4626
:101C5800BB6813441B78DB08DBB203F00103DAB27C
:101C6800FB7B1946FFF7FAFCBB7B0533D8B2FB7B3D
:101C78001B01BA7BD208D2B213441A46BB6813447C
:101C88001B789B08DBB203F00103DAB2FB7B194631
:101C9800FFF7E4FCBB7B0633D8B2FB7B1B01BA7BA6
:101CA800D208D2B213441A46BB6813441B785B08A7
:101CB800DBB203F00103DAB2FB7B1946FFF7CEFC77
:101CC800BB7B0733D8B2FB7B1B01BA7BD208D2B2ED
:101CD80013441A46BB6813441B7803F00103DAB2B5
:101CE800FB7B1946FFF7BAFCBB7B0833BB7397F93C
:101CF8000E30002BBFF64FAFFB7B0133FB73FB7B32
:101D08003F2B7FF645AFFFF74BFC00BF1037BD46B2
:101D180080BD00BF483D002080B582B000AF78602C
:101D2800044A0021786811F013FA0023184608378E
:101D3800BD4680BD851B00002DE9F04FAFB002AF56
:101D4800B74B00221A70B74B1B68B64A5268114647
:101D5800184618F05DFE0346C7F89830D7F8983053
:101D6800002B05D0B04BB14A6421B1481EF030FCBD
:101D7800AC4B1B68184618F0F5FF0346C7F89830B7
:101D8800D7F89830002B05D0A74BA84A6621A84859
:101D98001EF01EFCA749A8481AF0E6FB0346C7F840
:101DA8009830D7F89830002B05D09F4B9F4A6A216E
:101DB8009F481EF00DFCFFF78DFD0F2387F8AF300D
:101DC80012E097F8AF301A461F213F20FFF7E2FCD8
:101DD800FFF7E6FB4FF47A7132201EF003FC97F808
:101DE800AF30043387F8AF3097F8AF301D2BE8D900
:101DF8004FF47A714FF4FA701EF0F4FB18F014FBEC
:101E08008E4B0093002300228D490020FFF7D4F861
:101E18000346C7F89430D7F89430002B03D089488C
:101E280021F018F99BE3854B1B68874A19468748B8
:101E3800FFF786F80346C7F89430D7F89430002B9C
:101E480003D0834821F006F989E37C4B1B68814A5B
:101E580019468148FFF774F80346C7F89430D7F855
:101E68009430002B03D07A4821F0F4F877E3734BD1
:101E78001B687A4A19467A48FFF762F80346C7F89A
:101E88009430D7F89430002B03D0714821F0E2F851
:101E980065E36A4B1B68184618F092FC0346C7F8BE
:101EA8009430D7F89430002B03D06E4821F0D2F844
:101EB80055E3654B1B68184618F052FC654B1B68C8
:101EC800184618F04DFC18F0FDFA0346C7F8943090
:101ED800D7F89430002B03D0634821F0BBF83EE3D9
:101EE8000023C7F884300023C7F880300023FB673D
:101EF8000023BB67594B186807F1840301220521A9
:101F080018F00AFC554B186807F1800301220321D9
:101F180018F002FC514B186807F17C0301220421D8
:101F280018F0FAFB4D4B186807F1780301220621D7
:101F380018F0F2FB00237B6700233B67424B1868CD
:101F480007F170030122022118F0E6FB414B1868E3
:101F580007F174030122012118F0DEFB3F4B1B68D7
:101F6800424A13604FF00003C7F8A8304FF000034F
:101F7800C7F8A4304FF00003C7F8A03007F15C039E
:101F880000221A605A609A60DA601A6107F1480301
:101F980000221A605A609A60DA601A6107F1340305
:101FA80000221A605A609A60DA601A6107F1200309
:101FB80000221A605A609A60DA601A6107F10C030D
:101FC80000221A605A609A60DA601A61002387F862
:101FD8009F30274BD3ED007A97ED287A77EE677A12
:101FE800B0EE670AFFF7B9FD10EE103A18461EF07A
:101FF800C3FF09A3D3E900231FF0A6FA0346002B69
:1020080038D01A4B1A68154B1B689A4232D10123F3
:1020180031E000BFAFF300802D431CEBE2361A3FDE
:102028003487002080830200846E0200986E0200CC
:10203800B06E0200BC700200B8460020E4450020E3
:10204800211D0000CC6E0200EC450020F06E02005D
:10205800FC6E0200F0450020206F0200E8450020D9
:10206800306F02003C6F0200546F0200F4450020FC
:102078001C4600200023002B21D0454B1B68C7F8C5
:10208800A030D7F8A0001EF077FF02460B4607F1F4
:102098005C00CDE900233F4A142120F0E3FFD7F884
:1020A800843007F15C021146184618F03FF9D7F85A
:1020B8008430184618F088F9012387F89F30364B8A
:1020C800D3ED007A97ED2A7A77EE677AB0EE670A51
:1020D800FFF743FD10EE103A18461EF04DFF2AA3F5
:1020E800D3E900231FF030FA0346002B07D02B4B0F
:1020F8001A682B4B1B689A4201D1012300E0002388
:10210800002B21D0244B1B68C7F8A830D7F8A800AB
:102118001EF032FF02460B4607F14800CDE90023C6
:102128001C4A142120F09EFFD7F8803007F148029E
:102138001146184618F0FAF8D7F88030184618F003
:1021480043F9012387F89F30164BD3ED007A97EDBA
:10215800297A77EE677AB0EE670AFFF7FEFC10EE91
:10216800103A18461EF008FF07A3D3E900231FF012
:10217800EBF90346002B17D0084B1A68084B1B686D
:102188009A4211D1012310E0FCA9F1D24D62503FCF
:102198001C4600206C6F020014460020F445002005
:1021A800E8450020184600200023002B1FD0AC4B28
:1021B8001B68C7F8A430D7F8A4001EF0DDFE02465D
:1021C8000B4607F13400CDE90023A64A142120F07C
:1021D80049FFFB6F07F134021146184618F0A6F8BC
:1021E800FB6F184618F0F0F8012387F89F309E4BD4
:1021F8001A689E4B1B689A4240D19D4B93ED007A1A
:102208009C4BD3ED007A77EE677AB0EE670AFFF75A
:10221800A4FC10EE103A18461EF0AEFE01231E462E
:102228008DA3D3E900231FF08FF90346002B01D1BA
:1022380000231E46F3B2002B20D08E4B1B688C4A1D
:1022480013608B4B1B6818461EF096FE02460B4621
:1022580007F12000CDE90023874A142120F002FF6E
:102268003B6F07F120021146184618F05FF83B6FE4
:10227800184618F0A9F8012387F89F307A4B1A6896
:102288007E4B1B689A4240D17D4B93ED007A7D4B83
:10229800D3ED007A77EE677AB0EE670AFFF75DFC58
:1022A80010EE103A18461EF067FE01231E466AA378
:1022B800D3E900231FF048F90346002B01D100237E
:1022C8001E46F3B2002B20D06E4B1B686C4A13607D
:1022D8006B4B1B6818461EF04FFE02460B4607F173
:1022E8000C00CDE900235F4A142120F0BBFE7B6F70
:1022F80007F10C021146184618F018F87B6F1846BB
:1023080018F062F8012387F89F3097F89F30002B68
:1023180004D018F037F8002387F89F305A4B1B7801
:10232800DBB2002B14BF01230023DBB2002B6BD0E0
:10233800564B186807F188010023002218F03EFD6B
:102348000346C7F89830D7F89830002B51D1D7E911
:10235800222302F00104002554EA05030BD04C4B5C
:102368001B7883F00103DBB2002B01D000F046F9A3
:10237800474B01221A70D7E9222302F001084FF0D7
:10238800000958EA090309D1414B1B78002B02D0F8
:102398003D4B00221A703E4B00221A70D7E92223C7
:1023A80002F0020A4FF0000B5AEA0B030BD0394B2C
:1023B8001B7883F00103DBB2002B01D000F0E0F8BA
:1023C800344B01221A70D7E9222302F002033B6042
:1023D80000237B60D7E900120B46134309D12D4B2C
:1023E8001B78002B02D0284B00221A70294B0022A0
:1023F8001A70254B00221A70244B1B68184618F0D7
:10240800B1FC0346C7F8983007F10B031A460D21B3
:1024180021481BF040FA0346C7F89830D7F898309F
:10242800002B42D1FB7A002B3CD01C4B1B6801339C
:102438001A4A1360194B1B68052B36D1184B1B78A9
:1024480083F00103DBB2002B01D000F0D5F9144B67
:1024580000221A7029E000BF7B14AE47E17A843F5E
:10246800184600206C6F0200F4450020EC4500205F
:10247800FC45002044020020746F0200F045002053
:102488000046002048020020348700208083020094
:1024980004460020054600203C460020084600204F
:1024A8004C020020304B00221A6007F10A031A463A
:1024B8004FF486712D481BF0EEF90346C7F89830A3
:1024C800D7F89830002B1BD1BB7A002B15D0284B9E
:1024D8001B680133264A1360254B1B68052B0FD157
:1024E800244B1B7883F00103DBB2002B01D000F0F2
:1024F80013F9204B00221A7002E01D4B00221A60CB
:1025080007F109031A4640F20B1118481BF0C3F9EA
:102518000346C7F89830D7F89830002B1BD17B7A40
:10252800002B15D0144B1B680133134A1360124B50
:102538001B68052B0FD1114B1B7883F00103DBB20D
:10254800002B01D000F098F80C4B00221A7002E022
:10255800094B00221A60012002F062FB39E5B4370A
:10256800BD46BDE8F08F00BF084600203C4600206D
:102578000C4600204D020020104600204E0200208C
:1025880080B400AF154B1A68154B1B689A420CD1E2
:10259800144BD3ED007A9FED147A77EEC77A114B7E
:1025A800C3ED007A114B01221A700C4B1A68104BBC
:1025B8001B689A420CD10F4BD3ED007A9FED0A7A33
:1025C80077EEC77A0B4BC3ED007A0B4B01221A70DA
:1025D80000BFBD465DF8047B704700BFF44500208E
:1025E800EC45002044020020CDCCCC3DF84500202D
:1025F800F045002048020020F945002080B400AFD3
:10260800154B1A68154B1B689A420CD1144BD3ED25
:10261800007A9FED147A77EE877A114BC3ED007A32
:10262800114B01221A700C4B1A68104B1B689A4206
:102638000CD10F4BD3ED007A9FED0A7A77EE877AAB
:102648000B4BC3ED007A0B4B01221A7000BFBD463D
:102658005DF8047B704700BFF4450020EC4500207E
:1026680044020020CDCCCC3DF8450020F0450020A8
:1026780048020020F945002080B500AF224B1A68B7
:10268800224B1B689A4210D1214B1B681E4A1360CB
:102698001F4B1B68184618F093F81C4B1B6818460C
:1026A80018F05EF817F06EFE2CE0174B1A68184BFE
:1026B8001B689A4210D1154B1B68134A1360134BC1
:1026C8001B68184618F07CF8114B1B68184618F060
:1026D80047F817F057FE15E00B4B1A680D4B1B68AF
:1026E8009A420FD10A4B1B68074A1360084B1B68B4
:1026F800184618F065F8074B1B68184618F030F8AC
:1027080017F040FE00BF80BDF4450020E8450020DA
:10271800EC450020F045002098B500AF304B1B6811
:1027280018461EF029FC2AA3D3E900231EF0C4FA98
:1027380002460B4643EC172BB0EE470AF0EE670A49
:10274800FFF7F7F951EC100B01231C4622A3D3E93C
:1027580000231EF0DBFE0346002B01D100231C469C
:10276800E3B2002B03D01E4B1E4A1A602BE01C4B11
:102778001B6818461EF000FC4FF000021A4B1EF0B2
:102788009BFA02460B4643EC172BB0EE470AF0EED5
:10279800670AFFF7CEF951EC100B01231C460EA374
:1027A800D3E900231EF0B2FE0346002B01D100231B
:1027B8001C46E3B2002B03D0094B0C4A1A6002E016
:1027C800074B0B4A1A600B4B01221A7000BF98BDC9
:1027D8006666666666660A407B14AE47E17A843FA1
:1027E800440200200000A040000014406666E63F56
:1027F80033335340F845002080B500AF224B1A68A8
:10280800224B1B689A4210D1214B1B681E4A136049
:102818001F4B1B68184617F0D3FF1C4B1B68184644
:1028280017F09EFF17F0AEFD2CE0174B1A68194BF6
:102838001B689A4210D1164B1B68134A1360144B3D
:102848001B68184617F0BCFF124B1B68184617F098
:1028580087FF17F097FD15E00B4B1A680C4B1B68A8
:102868009A420FD1094B1B68074A1360074B1B6834
:10287800184617F0A5FF064B1B68184617F070FF9F
:1028880017F080FD00BF80BDF4450020E84500201A
:10289800F0450020EC45002080B483B000AF78609C
:1028A800044B01221A7000BF0C37BD465DF8047B4B
:1028B800704700BF2046002080B483B000AF786026
:1028C80000BF0C37BD465DF8047B704780B483B009
:1028D80000AF78607B681B79032B03D07B681B797A
:1028E800022B03D1084B01221A6007E07B681B7991
:1028F800012B03D1044B4FF0FF321A6000BF0C3795
:10290800BD465DF8047B70472446002080B483B040
:1029180000AF7860044B01221A7000BF0C37BD4627
:102928005DF8047B704700BF284600202DE9F0477A
:1029380088B000AF0346B9607A60FB736B469A466D
:102948007B685E1C3346013BBB610023B046994659
:102958004FF000024FF000034FEAC90343EA5873EF
:102968004FEAC802002334461D464FF000024FF0DC
:102978000003EB0043EA5473E200F31DDB08DB00BD
:10298800ADEB030D6B4600337B617B69FA7B1A70F4
:102998007B6901337A68B968184620F040FD002346
:1029A800FB612AE0204B00221A6000233246796935
:1029B8001E481AF0EEFA03463B613B69002B04D02F
:1029C8003B692BE0012002F02BF9174B1B68002B09
:1029D8000CBF01230023DBB2002BF3D1124B1B6881
:1029E800002BCCBF01230023DBB2002B09D10A2026
:1029F80002F016F9FB690133FB61FB69042BD1DD99
:102A080000E000BF084B1B68002BCCBF012300234C
:102A1800DBB2002B01D0002300E01223D546184674
:102A28002037BD46BDE8F0872446002068460020D0
:102A380080B586B000AF0346B9607A60FB730023A7
:102A48007B612BE0324B00221A6007F10F01012352
:102A5800012230481AF09DFA03463B613B69002B7E
:102A680004D03B694FE0012002F0DAF8284B1B68DC
:102A7800002B0CBF01230023DBB2002BF3D1244B26
:102A88001B68002BCCBF01230023DBB2002B09D12C
:102A98000A2002F0C5F87B6901337B617B69042B4E
:102AA800D0DD00E000BF1A4B1B68DB0FDBB2002B48
:102AB80001D0122327E0164B00221A6000237A68FF
:102AC800B96814481AF04CFA03463B613B69002B7D
:102AD80004D03B6917E0012002F0A2F80C4B1B68F8
:102AE800002B0CBF01230023DBB2002BF3D1084BD2
:102AF8001B68002BCCBF01230023DBB2002B01D0C5
:102B0800002300E0122318461837BD4680BD00BFD9
:102B18002446002068460020B0B584B000AF7E4B44
:102B28001B687D4A5268114618461AF0A5F90346F3
:102B3800FB60FB68002B05D0784B794AA2217948C5
:102B48001DF046FD0A2002F06BF80122402176486C
:102B58001AF046FA0346FB60FB68002B05D06F4B62
:102B68006F4AA8216F481DF033FDFEF76FFB03463F
:102B7800FB60FB68002B05D0684B694AAB216948AC
:102B88001DF026FDFEF754FC03461A4645F249435C
:102B98009A4205D0654B624AAC2162481DF018FD87
:102BA800634B1B68624A5268114618461BF0D4F8FA
:102BB8000346FB60FB68002B05D0584B584AAF21F1
:102BC80058481DF005FD5A4B1B6818461BF02EF996
:102BD8000346FB60FB68002B05D0504B504AB121DF
:102BE80050481DF0F5FC4C4B1B6801222E2118465D
:102BF8001AF0F6F90346FB60FB68002B05D0474B3B
:102C0800474AB52147481DF0E3FC7F23FB70FB1CB6
:102C1800012219460020FFF789FE0346FB60FB6886
:102C2800002B05D03D4B3E4AB8213E481DF0D0FC54
:102C38000023FB70FB1C012219460020FFF7F8FE59
:102C48000346FB60FB68002B05D0344B344ABB219C
:102C580034481DF0BDFC1E23BB7001223E213248C2
:102C68001AF0BEF90346FB60FB68002B05D02B4B1E
:102C78002B4AC1212B481DF0ABFCBB1C0122194675
:102C88000020FFF753FE0346FB60FB68002B05D0CE
:102C9800224B234AC32123481DF09AFCBB1C012266
:102CA80019460020FFF7C4FE0346FB60FB68002BB3
:102CB80005D01A4B1A4AC5211A481DF089FC1D492E
:102CC8001D481CF069FF0346FB60FB68002B05D01C
:102CD800124B134ACA2113481DF07AFC17491648AB
:102CE8001CF0B8FF0346FB60FB68002B05D00B4BBC
:102CF8000B4ACE210B481DF06BFC0F481CF0C2FF9D
:102D08000346FB60FB68002B1AD0044B044AD12110
:102D180004481DF05DFC00BF7C7002007C6F02005F
:102D2800906F0200AC6F020068460020CC6F020072
:102D3800087002002070020044460020387002002B
:102D48009D4BBB609D4B01221A709C4B1B78DBB2DC
:102D5800002B0ED0994B00221A700122402198486E
:102D68001AF03EF90346FB60FB68002B01D1FEF721
:102D78007FFB944B1B78DBB2002B3CD0914B00229D
:102D88001A7000233B803B461A4600218E481CF0EF
:102D98008BFF0346FB60FB68002B27D13B88184656
:102DA8001EF0D8F87CA3D3E900231EF067FA024688
:102DB8000B46104619467AA3D3E900231EF034F9CE
:102DC80002460B4614461D46B8681EF0D5F8024662
:102DD8000B46204629461EF051FA02460B4610467D
:102DE80019461EF0DBFB0346784A136076481CF050
:102DF80049FF0346FB60764B1B78002B63D0754B6D
:102E080093ED007A744BD3ED007A77EE677AB0EEE3
:102E1800670AFEF7A2FE10EE103A18461EF0ACF84C
:102E280001231C4660A3D3E900231EF08DFB034653
:102E3800002B01D100231C46E3B2002B3FD0012216
:102E48002E215F481AF0CCF80346FB60FB68002B84
:102E580040F09B805F4B93ED007A5F4BD3ED007A97
:102E680077EE677AF5EEC07AF1EE10FA0BDDFB78B3
:102E78007E2B04D8FB780133DBB2FB700EE0544B99
:102E880000221A700AE0FB780A2B04D9FB78013B70
:102E9800DBB2FB7002E04E4B00221A70FB1C0122D1
:102EA80019460020FFF742FD0346FB60FB1C012288
:102EB80019460020FFF7BCFD0346FB6065E0444B64
:102EC80000221A7061E0454B1B78002B5DD0444B03
:102ED80093ED007A434BD3ED007A77EE677AC7ED2E
:102EE800017A97ED010AFEF738FE10EE103A1846FF
:102EF8001EF042F801231C462DA3D3E900231EF03F
:102F080023FB0346002B01D100231C46E3B2002B10
:102F180038D0D7ED017AF5EEC07AF1EE10FA0BDD74
:102F2800BB78002B04D0BB78013BDBB2BB700EE052
:102F38002A4B00221A700AE0BB787E2B04D8BB7893
:102F48000133DBB2BB7002E0244B00221A7001226D
:102F58003E211B481AF044F80346FB60FB68002B2F
:102F680013D1BB1C012219460020FFF7DFFC0346E2
:102F7800FB60BB1C012219460020FFF759FD0346E0
:102F8800FB6002E0154B00221A70012001F048FE98
:102F9800DBE600BFAFF300800000000000FEAF409A
:102FA8006666666666660A40B81E85EB51B89E3F3F
:102FB800FCA9F1D24D62503F310C433D2046002020
:102FC8006846002028460020444600201446002079
:102FD800F84500201846002044020020F94500204A
:102FE8001C4600204802002080B400AF00BFBD4648
:102FF8005DF8047B704780B500AFFFF7F5FF00BFB1
:1030080080BD80B400AF00BFBD465DF8047B70474B
:1030180080B584B000AF78600E4B00221A600E4B6A
:1030280000221A701C2301220C490D4802F0E0FB13
:10303800F860FB68002B03D00021094800F012F863
:1030480000F064F800F0A2F8FFF7DBFF00BF1037CC
:10305800BD4680BD1447002018470020E0700200DC
:103068001C47002080B483B000AF7860396000BE90
:1030780000BF0C37BD465DF8047B704780B582B051
:1030880000AF4FF0FF311A4802F038FC78607B68D7
:10309800002B03D000211648FFF7E4FF154B1B78DF
:1030A80083F00103DBB2002B1ED0124B01221A70F1
:1030B800FFF7A1FF104B1B68013B0F4A13600FE09D
:1030C8000B4802F04FFC78607B68002B03D000218E
:1030D8000748FFF7C7FF084B1B68013B064A136008
:1030E800054B1B68002BEBD100BF0837BD4680BDE0
:1030F8001C470020184700201447002080B500AF67
:1031080000F08CF80023184680BD000080B58AB016
:1031180008AF134B1B680133114A1360B0230693A1
:1031280001230593012304930123039301230293AD
:103138004FF4006301930B4B009300230A4A0B4999
:103148000B4802F02DFC78607B68002B03D000212F
:103158000748FFF787FF00BF0837BD4680BD00BF9F
:1031680014470020A08900207D310000A8710200CA
:103178003847002080B582B000AF7860FFF77EFF47
:10318800FEF7DAFD00BF0837BD4680BD80B58AB0BE
:1031980008AF134B1B680133114A1360B023069321
:1031A800012305930123049301230393012302932D
:1031B8004FF4806301930B4B009300230A4A0B4999
:1031C8000B4802F0EDFB78607B68002B03D00021F0
:1031D8000748FFF747FF00BF0837BD4680BD00BF5F
:1031E80014470020A0910020FD310000D471020096
:1031F800E847002080B582B000AF7860FFF73EFF57
:10320800FFF78AFC00BF0837BD4680BD80B500AF18
:1032180001F046FC02F02EFA00BF80BD80B500AF79
:10322800104B1B6813F10F3F0CD00E4B4FF0F032D0
:103238001A6018F0BFFCFFF7E9FF0B4B1B6801335E
:10324800094A1360074B4FF0F0321A60074B1B68AE
:103258001846FFF7DDFE034B00221A6018F04CFDFC
:1032680000BF80BD7002002050490020B0480020F7
:1032780080B58CB000AF78603960EFF31083BB6124
:10328800BB69FB6272B600BF7B689B6E324A934291
:1032980057D17B68D3F8AC303A689A4251D17B68F1
:1032A800DB6EBB62BB6A002B4BD0BB6A1B682B4A28
:1032B800934246D1BB6ADB69002B42D07B6800226F
:1032C8009A66BB6ADB695A1EBB6ADA61BB6ADB694C
:1032D8007B627B6A002B03D1BB6A00229A6113E0F0
:1032E8007B681B6F3B627B685B6FFB613B6AFA69BB
:1032F8005A67FB693A6A1A67BB6A9B697A689A4295
:1033080002D1BB6A3A6A9A617B681B6B0D2B18D194
:103318007B681D22C3F88420114B1B680133104AB7
:103328001360FB6A3B613B6983F3108800BF7868D0
:1033380001F04AFDEFF310837B617B69FB6272B693
:1033480000BFFB6AFB60FB6883F3108800BF00BF07
:103358003037BD4680BD00BF793200004554554D19
:103368005049002080B588B000AF7860EFF3108333
:103378007B617B69FB6172B600BF1A4B1B68013326
:10338800184A13607B68D3F8A430BB61BB69002B73
:1033980016D0BB6901229A60FB69FB60FB6883F366
:1033A800108800BFB86900F0E7FAEFF310833B61BB
:1033B8003B69FB6172B600BF7B68D3F8A430BB6180
:1033C800BB69002BDED1074B1B68013B054A136024
:1033D800FB69BB60BB6883F3108800BF00BF203760
:1033E800BD4680BD5049002080B58AB000AFF86066
:1033F800B9607A6034220021F8681FF059FFFB6831
:10340800BA685A60FB687A681A61EFF31083BB6187
:10341800BB697B6272B600BFFB681A4A1A601A4B16
:103428001A4A1A601A4B1B68002B09D1194AFB6803
:103438001360FB68FA681A62FB68FA685A6211E05E
:10344800144B1B683B623B6A5B6AFB613B6AFA6828
:103458005A62FB69FA681A62FB68FA695A62FB6881
:103468003A6A1A620A4B1B680133094A13607B6A7D
:103478007B617B6983F3108800BF002318462837D7
:10348800BD4680BD4554554D544900206D3300005C
:10349800AC480020A848002080B590B000AF786004
:1034A8003960EFF31083FB61FB69BB6372B600BF41
:1034B800794B1B687B637B689B68002B44D17B68D6
:1034C80001229A607B687A6BDA607B6B002B32D0C2
:1034D8007B681B69012B06D17B6BDA6A7B685A61B2
:1034E8007B6820229A627B6BD3F8A4307B627B6A6C
:1034F800002B0FD07B6A1B6B3B627B6A7A681A636E
:103508003B6A7A68DA627B683A6A1A637B687A6A25
:10351800DA6209E07B6B7A68C3F8A4207B687A6872
:10352800DA627B687A681A637B6BD3F8A0305A1C1E
:103538007B6BC3F8A020BB6BBB61BB6983F31088AE
:1035480000BF0023FB63A2E07B68DB687A6B9A42CA
:103558000DD17B689B685A1C7B689A60BB6B7B614A
:103568007B6983F3108800BF0023FB638FE03B680F
:10357800002B00F08480494B1B68002B08D0BB6BE4
:103588003B613B6983F3108800BF1D23FB637EE02A
:103598007B68DB683B637B6B414A9A667B6B7A6826
:1035A800DA667B6BD3F8AC305A1C7B6BC3F8AC2063
:1035B8007B68DB69002B09D17B687A6B9A617B6B2E
:1035C8007A6B1A677B6B7A6B5A6711E07B689B6929
:1035D800FB627B6BFA6A1A67FB6A5B6FBB627B6B89
:1035E800BA6A5A67BB6A7A6B1A67FB6A7A6B5A6758
:1035F8007B68DB695A1C7B68DA617B6B0D221A6376
:103608007B6B01229A637B6B3A68DA64234B1B68F5
:103618000133224A1360BB6BFB60FB6883F310889D
:1036280000BF7B681B69012B21D17B689A6A7B6B81
:10363800DB6A9A4203D97B6BDA6A7B689A627B6B96
:10364800DA6A3B6BD3F89C309A4204D27B6BDA6A15
:103658003B6BC3F89C203B6BDA6A7B6BDB6A9A4254
:1036680005D97B6BDB6A1946386B00F0CBF8786BB1
:1036780001F09AFC7B6BD3F88430FB6307E0BB6BEB
:10368800BB60BB6883F3108800BF1D23FB63FB6B23
:1036980018464037BD4680BDB84800205049002034
:1036A8007932000080B590B000AF7860EFF31083F6
:1036B800FB61FB69FB6372B600BF7B68DB69FB6279
:1036C800FB6A012B05D8FB6BBB61BB6983F31088D0
:1036D80091E0FB6A022B14D17B689B693B633B6BCF
:1036E8001B6F7B627B6ADA6A3B6BDB6A9A4202D2A7
:1036F8007B687A6A9A61FB6B7B617B6983F31088CC
:1037080079E07B689B693B633B6B7B637B6B1B6FDF
:10371800BB633B4B1B680133394A13600023BB6210
:10372800BB6BDA6A7B6BDB6A9A4201D2BB6B7B6349
:10373800FB6BFB60FB6883F3108800BFEFF310831B
:103748003B613B69FB6372B600BF7B689B693A6B60
:103758009A4202D00123BB6206E07B68DB69FA6A01
:103768009A4201D00123BB62BB6A002B03D1BB6B19
:103778001B6FBB630CE07B689B693B637B68DB6901
:10378800FB623B6B7B637B6B1B6FBB630023BB6282
:10379800BA6B3B6B9A42C3D1194B1B68013B184A61
:1037A80013607A6B3B6B9A421DD07B6B1B6F7B62FD
:1037B8007B6B5B6F3B627B6A3A6A5A673B6A7A6AE1
:1037C8001A673B6B5B6F3B627B6B3A6B1A677B6B71
:1037D8003A6A5A673B6A7A6B1A673B6B7A6B5A6725
:1037E8007B687A6B9A61FB6BBB60BB6883F310885C
:1037F80000BF01F0A7FA002318464037BD4680BD38
:103808005049002080B58EB000AF78603960EFF382
:1038180010837B627B6A7B6372B600BF7B681B6B1D
:10382800002B17D07B683A68DA627B68D3F8983047
:103838003A689A4205D97B68D3F898207B68DA639E
:1038480002E07B683A68DA637B6B3B623B6A83F32E
:10385800108887E0454B1B683B637B68DB6AFB622B
:10386800434B1B680233424A13607B680E221A637B
:103878007B6801229A637B680022DA647B6BBB61F8
:10388800BB6983F3108800BF786801F08DFBEFF304
:103898001083FB61FB697B6372B600BF7B683A6883
:1038A800DA627B68D3F898303A689A4205D97B681F
:1038B800D3F898207B68DA6302E07B683A68DA63B9
:1038C8007B6B3B613B6983F3108800BF786801F02C
:1038D8007BFAEFF310837B617B697B6372B600BF71
:1038E800224B1B68BB627A68BB6A9A4234D07B68F9
:1038F8001B6B002B30D17B68DA6ABB6ADB6A9A42A1
:1039080011D87A683B6B9A4226D1184A7B681360B3
:10391800FA6A3B689A421FD27B68DB6A15497A6863
:1039280041F8232018E07B68DA6B7B68DB6A9A42EF
:1039380012D27B68DA6BBB6ADB6A9A420CD80B4AF4
:103948007B681360FA6A3B689A4205D27B68DB6A37
:1039580008497A6841F823207B6BFB60FB6883F396
:10396800108800BF00BF3837BD4680BDBC48002066
:1039780050490020D048002080B5A0B000AF786042
:1039880020233B67EFF310837B647B6CFB6772B685
:1039980000BF7B689B68002B00F0C4817B68DB68F4
:1039A8007B668D4B1B683B667B68DB683A6E9A4288
:1039B8000BD08A4B1B68002B07D1FB6F3B643B6C19
:1039C80083F3108800BF1E233B673B6F202B40F01A
:1039D800B1817B689B685A1E7B689A607B689B688C
:1039E800002B08D0FB6FFB63FB6B83F3108800BFD1
:1039F80000233B679EE17B6E002B08D1FB6FBB6306
:103A0800BB6B83F3108800BF00233B6792E17B6E9A
:103A1800D3F8A0305A1E7B6EC3F8A0207B6ED3F873
:103A2800A030002B04D17B6E0022C3F8A42015E03F
:103A38007B68DB6AFB667B681B6BFB65FB6EFA6D5C
:103A48001A63FB6DFA6EDA627B6ED3F8A4307A687B
:103A58009A4203D17B6EFA6EC3F8A4207B689B69F7
:103A6800002B0ED17B681B69002B0AD17B680022D2
:103A7800DA60FB6F7B637B6B83F3108800BF0023E6
:103A88003B673B6F202B40F055810023BB677B6E63
:103A9800D3F894307B677B681B69012B41D14F4B6E
:103AA8001B6801334D4A1360FB6F3B633B6B83F329
:103AB800108800BF2023BB667B6ED3F8A430FB665A
:103AC80016E0FB6E1B69012B07D1FB6E9B6ABA6E71
:103AD8009A4202D9FB6E9B6ABB66FB6EDB6AFB6689
:103AE8007B6ED3F8A430FA6E9A4201D10023FB66AC
:103AF800FB6E002BE5D1EFF31083FB62FB6AFB67DB
:103B080072B600BF354B1B68013B344A13607B6EAD
:103B1800BA6EC3F89C20BA6E7B6F9A4201D2BB6E14
:103B28007B677B68DB69012B1DD97B681B69012BCF
:103B380019D12A4B1B680133284A1360FB6F7B623B
:103B48007B6A83F3108800BF7868FFF7ABFDEFF35B
:103B58001083BB62BB6AFB6772B600BF1F4B1B6852
:103B6800013B1E4A13607B689B69002B38D11B4BB5
:103B78001B680133194A1360FB6F3B623B6A83F38E
:103B8800108800BF7B6820229A627B68DB68DB6A4A
:103B98007A6F9A4205D07B68DB68796F1846FFF721
:103BA80031FEEFF31083BB61BB69FB6772B600BFE0
:103BB8000A4B1B68013B094A13607B680022DA60E4
:103BC800FB6FFB61FB6983F3108800BF01F0BAF853
:103BD80000233B67AEE000BFB848002050490020F2
:103BE8007B689B697B667B681B69012B09D17B68B5
:103BF800DB68BB677B6EDA6A7B685A617B68202268
:103C08009A627B6ED3F8A030BB65BB6D002B0AD1DE
:103C18007B6E7A68C3F8A4207B687A68DA627B686E
:103C28007A681A6312E07B6ED3F8A430FB66FB6EE9
:103C38001B6BFB65FB6E7A681A63FB6D7A68DA6248
:103C48007B68FA6D1A637B68FA6EDA62BB6D5A1C80
:103C58007B6EC3F8A0207B6801229A607B687A6E2D
:103C6800DA607B68DB695A1E7B68DA617B68DB692E
:103C78007B657B6D002B03D17B6800229A610EE087
:103C88007B6E1B6F3B657B683A6D9A617B6E5B6FE1
:103C9800FB643B6DFA6C5A67FB6C3A6D1A677B6E76
:103CA80000229A667B6E0022C3F88420244B1B688E
:103CB8000133234A1360FB6F7B617B6983F31088B0
:103CC80000BF7B681B69012B26D17B68DB69002B51
:103CD80019D07868FFF7E6FCEFF310833B613B6986
:103CE800FB6772B600BF7B689B69BB64BB6C002B2B
:103CF80003D0BB6CDA6A7B689A62FB6FFB60FB6877
:103D080083F3108800BFBB6FDB6A7A6F9A4203D0D7
:103D1800796FB86FFFF776FD786E01F055F80023DC
:103D28003B6707E0FB6FBB60BB6883F3108800BF8D
:103D38001E233B673B6F18468037BD4680BD00BFDA
:103D48005049002080B58CB000AF78603960EFF33F
:103D58001083BB61BB69FB6272B600BF7B689B6E58
:103D6800364A934260D17B68D3F8AC303A689A42BD
:103D78005AD17B68DB6EBB62BB6A002B54D0BB6A2E
:103D88001B682F4A93424FD1BB6ADB6A002B4BD08A
:103D98007B6800229A66BB6ADB6A5A1EBB6ADA62D3
:103DA800BB6ADB6A7B627B6A002B03D1BB6A002299
:103DB8009A6213E07B681B6F3B627B685B6FFB61F9
:103DC8003B6AFA695A67FB693A6A1A67BB6A9B6A6F
:103DD8007A689A4202D1BB6A3A6A9A627B681B6B1C
:103DE800052B21D1BB6A1B69002B04D07B680B22F1
:103DF800C3F8842003E07B680A22C3F88420114BAF
:103E08001B6801330F4A1360FB6A3B613B6983F30C
:103E1800108800BF786800F0D7FFEFF310837B614C
:103E28007B69FB6272B600BFFB6AFB60FB6883F3C9
:103E3800108800BF00BF3037BD4680BD4D3D000033
:103E4800554555515049002080B58CB000AFF860F9
:103E5800B9607A603B6038220021F8681FF028FAC0
:103E6800FB68BA685A60FB687A689A607B689B004E
:103E7800BA6BB2FBF3F3FB62FB6A7A6802FB03F3EB
:103E8800BB62FB683A689A61FB689A69BB6A9B00E7
:103E98001A44FB68DA61FB683A681A62FB683A6898
:103EA8005A62FB68FA6A5A61FB68FA6ADA60EFF3E9
:103EB8001083BB61BB697B6272B600BFFB68194A9D
:103EC8001A60194B1B68002B09D1184AFB6813604C
:103ED800FB68FA681A63FB68FA685A6311E0134BC7
:103EE8001B683B623B6A5B6BFB613B6AFA685A631F
:103EF800FB69FA681A63FB68FA695A63FB683A6AED
:103F08001A63094B1B680133074A13607B6A7B619C
:103F18007B6983F3108800BF002318463037BD46FD
:103F280080BD00BF55455551A4480020A048002039
:103F380080B594B000AFF860B9607A6000233B6444
:103F4800EFF31083BB62BB6AFB6372B600BFFB680A
:103F5800DB6ABB63FB681B69002B00F03681BB6B17
:103F6800002B3CD1FB681B6AFB64BB68BB64FB6825
:103F78009B687B64FA6C131DFB64BB6C191DB964E8
:103F880012681A607B6C012B0ED907E0FA6C131DBE
:103F9800FB64BB6C191DB96412681A607B6C013B29
:103FA8007B647B6C002BF1D1FB68DB69FA6C9A426D
:103FB80002D1FB689B69FB64FB68FA6C1A62FB68B8
:103FC8005B695A1CFB685A61FB681B695A1EFB68CF
:103FD8001A61FB6B7B627B6A83F3108863E1FB6881
:103FE8009B6A7B637B6BD3F88030012B53D17B6B4F
:103FF800DB6FFB64BB68BB64FB689B687B64FA6C23
:10400800131DFB64BB6C191DB96412681A607B6CC4
:10401800012B0ED907E0FA6C131DFB64BB6C191D4C
:10402800B96412681A607B6C013B7B647B6C002B63
:10403800F1D1BB6B013BBB63BB6B002B03D1FB68AE
:1040480000229A620EE07B6B1B6F3B63FB683A6B46
:104058009A627B6B5B6FFB623B6BFA6A5A67FB6A1F
:104068003A6B1A67FB68BA6BDA627B6B00229A6656
:104078007B6B0022C3F884208D4B1B6801338C4A6C
:104088001360FB6B3B623B6A83F3108800BF786B5D
:1040980000F09AFE07E1FB681B6AFB64BB68BB641F
:1040A800FB689B687B64FA6C131DFB64BB6C191D71
:1040B800B96412681A607B6C012B0ED907E0FA6CA0
:1040C800131DFB64BB6C191DB96412681A607B6C04
:1040D800013B7B647B6C002BF1D1FB68DB69FA6CDC
:1040E8009A4202D1FB689B69FB64FB68FA6C1A620E
:1040F8006F4B1B6801336E4A13606D4B1B68013BA5
:104108006B4A13607B6BDB6FFB64FB685B6ABB64A9
:10411800FB689B687B64FA6C131DFB64BB6C191D00
:10412800B96412681A607B6C012B0ED907E0FA6C2F
:10413800131DFB64BB6C191DB96412681A607B6C93
:10414800013B7B647B6C002BF1D1FB68DB69BA6CAB
:104158009A4202D1FB689B69BB64FB68BA6C5A62DD
:10416800FB689B6A7B63BB6B013BBB63BB6B002B30
:1041780003D1FB6800229A620EE07B6B1B6F3B63E6
:10418800FB683A6B9A627B6B5B6FFB623B6BFA6A0C
:104198005A67FB6A3A6B1A67FB68BA6BDA627B6B21
:1041A80000229A667B6B0022C3F88420404B1B6870
:1041B80001333F4A1360FB6BFB61FB6983F3108893
:1041C80000BF786B00F000FE6DE07B68002B62D0CA
:1041D800374B1B68002B08D0FB6BBB61BB6983F3B3
:1041E800108800BF0A233B645DE0324B1B687B6389
:1041F8007B6B314A9A667B6BFA68DA667B6BBA68C6
:10420800DA677B6B0022C3F880207B6BD3F8AC3075
:104218005A1C7B6BC3F8AC20BB6B002B09D1FB6825
:104228007A6B9A627B6B7A6B1A677B6B7A6B5A67CD
:1042380011E0FB689B6A3B637B6B3A6B1A673B6BCD
:104248005B6FFB627B6BFA6A5A67FB6A7A6B1A6769
:104258003B6B7A6B5A67BB6B5A1CFB68DA627B6BE9
:1042680005221A637B6B01229A637B6B7A68DA6496
:104278000F4B1B6801330E4A1360FB6B7B617B6934
:1042880083F3108800BF786B00F08EFE7B6BD3F849
:1042980084303B6407E0FB6B3B613B6983F3108828
:1042A80000BF0A233B643B6C18465037BD4680BDAF
:1042B80050490020B84800204D3D000080B594B01A
:1042C80000AFF860B9607A6000233B64EFF31083B5
:1042D800BB62BB6AFB6372B600BFFB68DB6ABB6389
:1042E800FB685B69002B00F09B80BB6B002B3CD10B
:1042F800FB685B695A1EFB685A61FB681B695A1C9C
:10430800FB681A61BB68FB64FB685B6ABB64FB689B
:104318009B687B64FA6C131DFB64BB6C191DB96444
:1043280012681A607B6C012B0ED907E0FA6C131D1A
:10433800FB64BB6C191DB96412681A607B6C013B85
:104348007B647B6C002BF1D1FB68DB69BA6C9A4209
:1043580002D1FB689B69BB64FB68BA6C5A62FB6B51
:104368007B627B6A83F31088C8E0FB689B6A7B6387
:10437800BB6B013BBB63BB6B002B03D1FB6800220B
:104388009A6212E07B6B1A6FFB689A627B6B1B6FF9
:104398003B63FB683A6B9A627B6B5B6FFB623B6BC0
:1043A800FA6A5A67FB6A3A6B1A67FB68BA6BDA6291
:1043B8007B6B00229A66BB68FB647B6BDB6FBB641C
:1043C800FB689B687B64FA6C131DFB64BB6C191D4E
:1043D800B96412681A607B6C012B0ED907E0FA6C7D
:1043E800131DFB64BB6C191DB96412681A607B6CE1
:1043F800013B7B647B6C002BF1D17B6B0022C3F803
:104408008420414B1B6801333F4A1360FB6B3B62BE
:104418003B6A83F3108800BF786B00F0D5FC6DE031
:104428007B68002B62D0384B1B68002B08D0FB6BD5
:10443800FB61FB6983F3108800BF0B233B645DE0DD
:10444800324B1B687B637B6B314A9A667B6BFA68DD
:10445800DA667B6BBA68DA677B6B0022C3F8802068
:104468007B6BD3F8AC305A1C7B6BC3F8AC20BB6BAE
:10447800002B09D1FB687A6B9A627B6B7A6B1A679F
:104488007B6B7A6B5A6711E0FB689B6A3B637B6BBB
:104498003A6B1A673B6B5B6FFB627B6BFA6A5A6716
:1044A800FB6A7A6B1A673B6B7A6B5A67BB6B5A1C51
:1044B800FB68DA627B6B05221A637B6B01229A63C5
:1044C8007B6B7A68DA64104B1B6801330E4A136001
:1044D800FB6BBB61BB6983F3108800BF786B00F08E
:1044E80063FD7B6BD3F884303B6407E0FB6B7B6137
:1044F8007B6983F3108800BF0B233B643B6C184631
:104508005037BD4680BD00BF50490020B848002044
:104518004D3D000080B58CB000AF78603960EFF396
:104528001083BB61BB69FB6272B600BF7B689B6E80
:10453800324A934257D17B68D3F8AC303A689A42F2
:1045480051D17B68DB6EBB62BB6A002B4BD0BB6A68
:104558001B682B4A934246D1BB6A1B69002B42D089
:104568007B6800229A66BB6A1B695A1EBB6A1A617D
:10457800BB6A1B697B627B6A002B03D1BB6A002282
:10458800DA6013E07B681B6F3B627B685B6FFB61E3
:104598003B6AFA695A67FB693A6A1A67BB6ADB6859
:1045A8007A689A4202D1BB6A3A6ADA607B681B6B06
:1045B800062B18D17B680D22C3F88420114B1B6889
:1045C8000133104A1360FB6A3B613B6983F310882F
:1045D80000BF786800F0F8FBEFF310837B617B691C
:1045E800FB6272B600BFFB6AFB60FB6883F310884E
:1045F80000BF00BF3037BD4680BD00BF1D4500006D
:10460800414D45535049002080B58AB000AFF8604D
:10461800B9607A601C220021F8681EF049FEFB6828
:10462800BA685A60FB687A689A60EFF31083BB61D6
:10463800BB697B6272B600BFFB68194A1A60194BE6
:104648001B68002B09D1184AFB681360FB68FA68DD
:104658005A61FB68FA689A6111E0134B1B683B6268
:104668003B6A9B69FB613B6AFA689A61FB69FA6875
:104678005A61FB68FA699A61FB683A6A5A61094BA0
:104688001B680133074A13607B6A7B617B6983F38C
:10469800108800BF002318462837BD4680BD00BFDC
:1046A800414D45539C4800209848002080B58CB067
:1046B80000AF786039600023FB62EFF31083BB61C1
:1046C800BB69BB6272B600BF7B689B68002B0AD0CF
:1046D8007B689B685A1E7B689A60BB6A7B617B69B2
:1046E80083F3108868E03B68002B5DD0354B1B686E
:1046F800002B08D0BB6A3B613B6983F3108800BF7D
:104708000D23FB6258E0304B1B687B627B6A2F4AA3
:104718009A667B6A7A68DA667B6AD3F8AC305A1C88
:104728007B6AC3F8AC207B681B69002B09D17B68C6
:104738007A6ADA607B6A7A6A1A677B6A7A6A5A677F
:1047480011E07B68DB683B627B6A3A6A1A673B6AFE
:104758005B6FFB617B6AFA695A67FB697A6A1A6759
:104768003B6A7A6A5A677B681B695A1C7B681A61BC
:104778007B6A06221A637B6A01229A637B6A3A681B
:10478800DA64104B1B6801330E4A1360BB6AFB6086
:10479800FB6883F3108800BF786A00F005FC7B6A29
:1047A800D3F88430FB6207E0BB6ABB60BB6883F365
:1047B800108800BF0D23FB62FB6A18463037BD46E0
:1047C80080BD00BF50490020B84800201D450000AA
:1047D80080B58AB000AF7860EFF310833B613B6926
:1047E8007B6272B600BF7B681B693B623B6A002B29
:1047F8000AD17B689B685A1C7B689A607B6AFB605D
:10480800FB6883F3108833E07B68DB68FB613B6AF5
:10481800013B3B623B6A002B03D17B680022DA60D4
:104828000EE0FB691B6FBB617B68BA69DA60FB69E4
:104838005B6F7B61BB697A695A677B69BA691A677A
:104848007B683A6A1A61FB6900229A66FB69002252
:10485800C3F88420094B1B680133084A13607B6A3C
:10486800BB60BB6883F3108800BFF86900F0ACFA3E
:10487800002318462837BD4680BD00BF5049002098
:1048880080B590B000AFF860B9607A603B600023F3
:10489800BB63FA6CEF21B86C1EF00AFDB022002150
:1048A800F8681EF005FDFB68BA689A62FB687A68CA
:1048B8005A64FB683A689A64FB68BA6CDA60FB6809
:1048C800FA6C5A61FB683A6DDA62FB683A6DC3F8B4
:1048D8009420FB68BA6D9A61FB68BA6DDA61FB686F
:1048E8002022C3F89C20BB6C7B63FB6C013B7A6B7A
:1048F80013447B63FB687A6B1A613A6D7B6D9A424D
:1049080007D0FB680022DA63FB680022C3F898200E
:1049180006E0FB683A6DDA63FB683A6DC3F89820E5
:10492800FB6803221A63FB68474A5A65FA68FB6802
:104938009A654649F86817F03DFAEFF310837B62F1
:104948007B6A3B6372B600BFFB68414A1A60414B01
:104958001B68002B0BD1404AFB681360FB68FA68A0
:10496800C3F88820FB68FA68C3F88C2016E03A4B35
:104978001B68FB62FB6AD3F88C30BB62FB6AFA687F
:10498800C3F88C20BB6AFA68C3F88820FB68BA6A47
:10499800C3F88C20FB68FA6AC3F888202D4B1B6883
:1049A80001332C4A13602D4B1B6801332B4A1360CB
:1049B800FB6D012B29D1EFF305833B623A6A284B43
:1049C8001B681343B3F1F03F0DD3264B1B68FB6301
:1049D800FB6B002B09D0FB6BDB6BBB63FB6BDA6AF1
:1049E800FB6BDA6301E00023FB633B6BFB61FB6954
:1049F80083F3108800BFF86800F0E6F9FB6B002B22
:104A08001DD0FB6BBA6BDA6319E03B6B3B613B690A
:104A180083F3108800BFEFF310837B617B693B63EE
:104A280072B600BF0D4B1B68013B0C4A13603B6B11
:104A3800BB61BB6983F3108800BF00F083F90023D2
:104A480018464037BD4680BD095200008D4B000016
:104A580044524854C4480020C0480020504900200F
:104A680070020020BC48002080B485B000AFEFF38E
:104A780010833B603B68FB6072B600BF074B1B6846
:104A8800BB60FB687B607B6883F3108800BFBB68F2
:104A980018461437BD465DF8047B7047B8480020B7
:104AA80080B400AF064B20221A60064B1B6843F007
:104AB800C773044A136000BFBD465DF8047B7047A6
:104AC800CC4800205849002080B58AB000AF7860F3
:104AD8000023FB61EFF310837B617B69BB6172B6D6
:104AE80000BF7B681B6B032B2FD1EFF305833B6162
:104AF8003A69214B1B681343B3F1F03F0DD31F4BA9
:104B08001B683B623B6A002B09D03B6ADB6BFB618D
:104B18003B6ADA6A3B6ADA6301E000233B62184BBE
:104B28001B680133164A1360BB69FB60FB6883F39B
:104B3800108800BF786800F047F93B6A002B02D064
:104B48003B6AFA69DA63002312E07B685B6B012B2E
:104B580005D17B6800225A6319237B6201E0122386
:104B68007B62BB69BB60BB6883F3108800BF7B6A4C
:104B780018462837BD4680BD70020020BC4800207A
:104B88005049002080B588B000AF224B1B68FB61FC
:104B9800FB695B6CFA69926C104698471E4B1B6860
:104BA800002B03D01C4B1B68F8699847EFF3108360
:104BB8007B607B68BB6172B600BFFB6901221A6328
:104BC800FB6901229A63FB690022DA64134B1B68B4
:104BD8000133124A1360BB69BB60BB6883F310885A
:104BE80000BFEFF31483FB60FB687B617B6923F0F4
:104BF80004037B617B693B613B6983F31488BFF3E2
:104C08006F8F00BF00BFF86900F0CEF900BF2037F2
:104C1800BD4680BDB84800205449002050490020B6
:104C280080B58CB000AF7860EFF310833B623B6ACD
:104C3800BB6272B600BF2F4B1B687B627B6A002B7E
:104C480008D1BB6AFB61FB6983F3108800BF13239B
:104C5800FB6249E0EFF30583BB61BA69264B1B6829
:104C68001343002B08D0BB6A7B617B6983F31088F0
:104C780000BF1323FB6237E07B68002B08D1BB6AB7
:104C88003B613B6983F3108800BF0023FB622BE084
:104C98001A4B1B68002B08D0BB6AFB60FB6883F3C8
:104CA800108800BF1323FB621EE07B6A04221A638C
:104CB8007B6A01229A637B6A0022C3F884207B6A9C
:104CC8007A68DA640D4B1B6801330C4A1360BB6ABF
:104CD800BB60BB6883F3108800BF786A00F064F992
:104CE8007B6AD3F88430FB62FB6A18463037BD46CE
:104CF80080BD00BFB8480020700200205049002045
:104D080080B485B000AF0E4B4FF080525A60EFF37D
:104D18000583BB60BB68002B0CD1EFF310833B60AD
:104D28003B68FB6062B600BFFB687B607B6883F30F
:104D3800108800BF00BF1437BD465DF8047B70477C
:104D480000ED00E080B584B000AF0B4B1B68FB6042
:104D5800FB68002B0BD1094B1B68BB60084B1B6819
:104D68007B60BA687B689A4201D0FFF7C9FF00BF31
:104D78001037BD4680BD00BF50490020B84800200C
:104D8800BC48002080B485B000AF0E4B4FF0805275
:104D98005A60EFF30583BB60BB68002B0CD1EFF3BF
:104DA80010833B603B68FB6062B600BFFB687B60BA
:104DB8007B6883F3108800BF00BF1437BD465DF8D9
:104DC800047B704700ED00E080B58EB000AF7860DE
:104DD800EFF310837B617B697B6372B600BF7B68EE
:104DE8005B6E002B05D07B684C33184600F0C8FC7E
:104DF80002E07B680022DA64544B1B68013B534A8B
:104E080013607B689B6B002B6CD17B681B6B002B42
:104E180000F081807B685B6B002B5CD17B68002293
:104E28001A637B68DB6A3B63494A3B6B52F8233061
:104E3800FB62FB6A002B3ED145493B6B7A6841F81F
:104E480023207B687A681A627B687A685A62012232
:104E58003B6B02FA03F37B623E4B1A687B6A13438F
:104E68003C4A13603C4B1B683A6B9A4253D23A4A0D
:104E78003B6B1360394B1B683B623B6A002B03D1C9
:104E8800364A7B68136046E03B6ADB6B3A6B9A42B2
:104E980041D2324A7B6813607B6B3B613B6983F389
:104EA800108800BF294B1B68FB61FB69002B49D1A7
:104EB800FFF768FF46E0FB6A5B6ABB62BB6A7A6819
:104EC8001A62FB6A7A685A627B68BA6A5A627B68B5
:104ED800FA6A1A621FE07B6800225A637B68032221
:104EE8001A6318E07B681B6B012B14D07B681B6B63
:104EF800022B10D07B685B6B002B06D17B680022ED
:104F08009A637B6800221A6305E07B6800225A6373
:104F18007B6803221A63124B1B68BB617B6BFB60C7
:104F2800FB6883F3108800BF0C4B1B68BA699A4270
:104F380009D0064B1B68FB61FB69002B03D1FFF707
:104F480021FF00E000BF3837BD4680BD5049002032
:104F5800D0480020C8480020CC480020BC48002089
:104F6800B848002080B485B000AF0E4B4FF0805297
:104F78005A60EFF30583BB60BB68002B0CD1EFF3DD
:104F880010833B603B68FB6062B600BFFB687B60D8
:104F98007B6883F3108800BF00BF1437BD465DF8F7
:104FA800047B704700ED00E080B594B000AF7860F6
:104FB800644B1B68FB64EFF310837B627B6ABB6402
:104FC80072B600BF7A68FB6C9A4212D17B68DB6CC0
:104FD8007B647B6C002B08D07B6CB3F1FF3F04D063
:104FE8007B684C33184600F069FB7B68DB69564ADE
:104FF8001360564B1B68013B544A13607B689B6BDC
:10500800012B40F083807B6800229A637B68DB6A0F
:105018003B647B681B6AFB63FA6B7B689A4215D01A
:105028007B685B6ABB62FB6BBA6A5A62BB6AFA6BE3
:105038001A62474A3B6C52F823307A689A424AD13E
:1050480043493B6CFA6B41F8232044E0404A3B6CEF
:10505800002142F8231001223B6C02FA03F3BB63E0
:105068003C4B1A68BB6BDB4313403A4A136000237E
:105078007B63384B1B683B633B6B002B14D1364B6F
:1050880020221A60354B00221A60BB6C3B623B6AD7
:1050980083F3108800BF2D4B1B68FB62FB6A002B53
:1050A80048D1FFF75FFF45E03B6BBB61BB6993FAF3
:1050B800A3F37B617B69FB61FB69002B01D1202392
:1050C80003E0FB69B3FA83F3DBB2BB637A6BBB6BB8
:1050D8001344214A1360214B1B687A689A4215D100
:1050E8001D4B1B681A4A52F823301C4A1360BB6CCC
:1050F8003B613B6983F3108800BF144B1B68FB625C
:10510800FB6A002B18D1FFF72DFF15E0BB6CFB6085
:10511800FB6883F3108800BF104B1B68FA6C9A4237
:105128000CD00A4B1B68FB62FB6A002B06D1FFF709
:1051380019FF03E000BF02E000BF00E000BF5037E6
:10514800BD4680BDB8480020044A002050490020D0
:10515800D0480020C8480020CC480020BC48002087
:1051680080B485B000AF204B1B68FB60EFF3108361
:105178007B607B68BB6072B600BF1C4B00221A6064
:10518800FB68002B24D0FB681B6B002B20D1FB682D
:10519800DA69FB689A61FB689B69154A1360FB68CA
:1051A8001B6AFA689A4213D0FB68DA6AFB68DB6B01
:1051B8009A420DD1FB68DB6AFA68126A0D4941F818
:1051C80023200D4B1B680B4A52F823300B4A1360FF
:1051D800BB683B603B6883F3108800BF00BF14378F
:1051E800BD465DF8047B7047B84800206049002040
:1051F800044A0020D0480020CC480020BC480020A9
:1052080080B58AB000AF78607B687B62EFF310836B
:105218007B617B693B6272B600BF7B6A1B6B042BA8
:105228000ED1134B1B680133114A13603B6A3B6173
:105238003B6983F3108800BF786AFFF7C5FD13E068
:105248007B6A9B6EFB617B6AD3F8AC30BB613B6ABF
:10525800FB60FB6883F3108800BFFB69002B03D059
:10526800FB69B969786A984700BF2837BD4680BD91
:105278005049002080B485B000AFEFF310833B6045
:105288003B68FB6072B600BF074B1B68BB60FB68DE
:105298007B607B6883F3108800BFBB6818461437AF
:1052A800BD465DF8047B70475C49002080B58AB034
:1052B80000AFF860B9607A603B602C220021F86882
:1052C8001DF0F6FFFB68BA685A60FB683A6B9A6093
:1052D800FB687A6BDA60FB687A681A61FB683A687F
:1052E8005A61EFF31083BB61BB697B6272B600BF82
:1052F800FB681D4A1A601D4B1B68002B09D11C4A0C
:10530800FB681360FB68FA685A62FB68FA689A627D
:1053180011E0174B1B683B623B6A9B6AFB613B6A67
:10532800FA689A62FB69FA685A62FB68FA699A62D3
:10533800FB683A6A5A620D4B1B6801330B4A1360CB
:10534800BB6B012B04D1FB680833184600F0B6F993
:105358007B6A7B617B6983F3108800BF0023184652
:105368002837BD4680BD00BF4D495441F84900204B
:10537800F449002080B48DB000AF78607B680833B2
:105388007B62EFF310833B613B693B6272B600BFFF
:105398007B6A9B69FB61FB69002B7FD00023BB62A2
:1053A800454B1B68FA699A4206D3444B1B68FA6955
:1053B8009A4201D20123BB62BB6A012B2ED1404B1A
:1053C8001B68FA699A4207D33D4B1B68FA69D31ADE
:1053D8009B100133FB6210E0374B1B68FA69D31A44
:1053E8009B10FB62354B1A68354B1B68D31A9B1010
:1053F8001A46FB6A13440133FB627B6A1B68202B45
:1054080008D97B6A1A68FB6A1344A3F120027B6AF5
:105418001A601CE07B6AFA6A1A6018E0294B1B685C
:105428007A6A9A420FD07B6A1B68202B06D97B6A5E
:105438001B68A3F120027B6A1A6008E07B6A5A683D
:105448007B6A1A6003E07B6A5A687B6A1A607B6A27
:105458001B69BB617A6ABB699A4208D1FB691B6800
:105468007A6A9A4217D1FB6900221A6013E07B6AB4
:105478005B697B61BB697A695A617B69BA691A6140
:10548800FB691B687A6A9A4205D1BB69FA699A6115
:10549800FB69BA691A607B6A00229A613B6AFB6001
:1054A800FB6883F3108800BF002318463437BD46D5
:1054B8005DF8047B704700BFE4490020E8490020FC
:1054C800EC490020FC49002080B58EB000AF0023D5
:1054D800FB62EFF31083FB61FB697B6372B600BF6D
:1054E8005E4B1B68002B40F0AF805D4B1B68002BA8
:1054F80000F0AA80594B01221A605A4B1B681B689E
:105508007B607B68002B02D07B683A1D9A61554B03
:105518001B6800221A60534B1B680433514A1360FE
:10552800504B1A68504B1B689A4203D14F4B1B686B
:105538004C4A13604A4B00221A607B6B7B617B6983
:1055480083F3108800BFEFF31083BB61BB697B63F3
:1055580072B600BF6DE07B68BB627B681B697B62CB
:1055680000233B60BA6A7B6A9A4202D100237B60BF
:105578000DE0BB6A5B693B627B6A3A6A5A613B6AC7
:105588007A6A1A617B6A3A1D9A617B6A7B60BB6A98
:105598001B68202B10D9BB6A1B68A3F12002BB6AC9
:1055A8001A6000233B63BB6A3A469A61BB6ABA6ACF
:1055B8001A61BB6A3B6019E0BB6A9B683B63BB6AC4
:1055C800DB68FB62BB6A5A68BB6A1A60BB6A1B6805
:1055D800002B08D0BB6A3A469A61BB6ABA6A1A615C
:1055E800BB6A3B6002E0BB6A00229A61204ABB6A40
:1055F80013607B6B3B613B6983F3108800BF3B6B97
:10560800002B02D03B6BF86A9847EFF31083FB60DE
:10561800FB687B6372B600BF154B00221A603B68BB
:10562800BA6A9A4205D1BB6A00229A61B86A00F048
:1056380045F87B68002B8ED1094B1B68002B7FF443
:105648005CAF064B00221A607B6BBB60BB6883F3C0
:10565800108800BF00BF3837BD4680BD004A002013
:10566800F0490020EC490020E8490020E4490020E6
:10567800FC49002080B400AF0A4B0B4A1A600B4B60
:10568800094A1A600A4B0B4A1A60094B1B68043313
:10569800074A1360084B00221A6000BFBD465DF838
:1056A800047B7047E449002064490020EC4900204D
:1056B800E8490020E0490020004A002080B489B071
:1056C80000AF78607B681B687B617B69002B4AD0E0
:1056D8007B69B3F1FF3F46D07B689B69002B42D1C1
:1056E8007B69202B02D91F23BB6102E07B69013B48
:1056F800BB61204B1A68BB699B001344FB611E4BBE
:105708001B68FA699A420BD31B4B1B68FA69D31AB8
:105718009B103B61194B1A683B699B001344FB6162
:10572800FB691B68002B09D17B687A681A617B6862
:105738007A685A61FB697A681A6011E0FB691B682C
:10574800FB60FB685B69BB60BB687A681A61FB68D1
:105758007A685A617B68FA681A617B68BA685A6124
:105768007B68FA699A6100BF2437BD465DF8047BFF
:10577800704700BFEC490020E8490020E4490020B8
:1057880080B487B000AF78607B689B697B617B6978
:10579800002B26D07B681B693B617A683B699A427B
:1057A80008D17B691B687A689A4217D17B69002205
:1057B8001A6013E07B685B69FB603B69FA685A61B1
:1057C800FB683A691A617B691B687A689A4205D155
:1057D8003B697A699A617B693A691A607B68002239
:1057E8009A6100BF1C37BD465DF8047B7047000016
:1057F80080B58EB000AFF860B9607A603B60002376
:105808007B63FB68002B02D10C237B6348E03B6879
:105818001C2B02D00C237B6342E0EFF310833B6226
:105828003B6ABB6272B600BF304B1B6801332F4A1C
:105838001360BB6A7B627B6A83F3108800BF2C4BC2
:105848001B68FB6200233B6309E0FA68FB6A9A4223
:105858000BD0FB6A5B69FB623B6B01333B63254BF7
:105868001B683A6B9A42F0D300E000BFEFF3108355
:10587800BB61BB69BB6272B600BF1C4B1B68013BB6
:105888001A4A1360BB6AFB61FB6983F3108800BF87
:10589800FFF758FAFA68FB6A9A4201D10C237B6336
:1058A8007B6B002B14D1EFF305837B617A69124B74
:1058B8001B681343002B0BD0EFF305833B613A6958
:1058C8000D4B1B681343B3F1F03F01D213237B63E5
:1058D8007B6B002B05D17A68B968F868FEF794FEEF
:1058E80078637B6B18463837BD4680BD5049002029
:1058F800984800209C4800207002002080B584B0A1
:1059080000AF786039600023FB607B68002B02D110
:105918000C23FB6015E07B681B68104A934202D099
:105928000C23FB600DE03B68002B0AD0EFF30583E6
:10593800BB60BA680A4B1B681343002B01D00423D1
:10594800FB60FB68002B04D139687868FEF7AEFE6F
:10595800F860FB6818461037BD4680BD414D455379
:105968007002002080B584B000AF78607B68002B9F
:1059780002D10C23FB600BE07B681B68074A93424B
:1059880002D00C23FB6003E07868FEF721FFF86083
:10599800FB6818461037BD4680BD00BF414D4553D2
:1059A80080B598B006AFF860B9607A603B600023B4
:1059B8007B64FB68002B02D10E237B64B0E0BB6ED6
:1059C800B02B02D00E237B64AAE0EFF310837B6236
:1059D8007B6A7B6372B600BF5F4B1B6801335E4A0C
:1059E80013607B6BBB62BB6A83F3108800BF002324
:1059F8003B645A4B1B68BB633B6D3B637B6D013B50
:105A08003A6B13443B633B6BFB620023FB632BE065
:105A1800FA68BB6B9A4201D101233B643B6C012BB2
:105A280028D0BB6BDB683A6D9A4208D3BB6B1B6905
:105A38003A6D9A4203D200233B6501233B64BB6B5A
:105A4800DB68FA6A9A4208D3BB6B1B69FA6A9A4206
:105A580003D200233B6501233B64BB6BD3F888303A
:105A6800BB63FB6B0133FB633D4B1B68FA6B9A42CC
:105A7800CED300E000BFEFF31083FB61FB697B63CB
:105A880072B600BF344B1B68013B334A13607B6B13
:105A98003B623B6A83F3108800BFFFF753F9FA684B
:105AA800BB6B9A4202D10E237B6439E03B6D002B1D
:105AB80002D103237B6433E07B68002B02D10323EC
:105AC8007B642DE07B6DC72B02D805237B6427E020
